{"contracts/CrowdFundFactory.sol":{"CrowdFundFactory":{"abi":[{"anonymous":false,"inputs":[{"indexed":false,"internalType":"address","name":"campaignAddress","type":"address"},{"indexed":false,"internalType":"address","name":"creator","type":"address"},{"indexed":false,"internalType":"string","name":"title","type":"string"}],"name":"CampaignCreated","type":"event"},{"inputs":[{"internalType":"string","name":"title","type":"string"},{"internalType":"string","name":"description","type":"string"},{"internalType":"uint256","name":"fundingGoal","type":"uint256"},{"internalType":"uint256","name":"duration","type":"uint256"}],"name":"createCampaign","outputs":[],"stateMutability":"nonpayable","type":"function"},{"inputs":[{"internalType":"uint256","name":"","type":"uint256"}],"name":"deployedCampaigns","outputs":[{"internalType":"address","name":"","type":"address"}],"stateMutability":"view","type":"function"},{"inputs":[],"name":"getDeployedCampaigns","outputs":[{"internalType":"address[]","name":"","type":"address[]"}],"stateMutability":"view","type":"function"}],"evm":{"bytecode":{"linkReferences":{},"object":"608060405234801561001057600080fd5b506118cd806100206000396000f3fe608060405234801561001057600080fd5b50600436106100415760003560e01c8063339d50a5146100465780634acb9d4f14610076578063a318f2691461008b575b600080fd5b610059610054366004610205565b6100a0565b6040516001600160a01b0390911681526020015b60405180910390f35b61007e6100ca565b60405161006d919061021e565b61009e61009936600461030e565b61012c565b005b600081815481106100b057600080fd5b6000918252602090912001546001600160a01b0316905081565b6060600080548060200260200160405190810160405280929190818152602001828054801561012257602002820191906000526020600020905b81546001600160a01b03168152600190910190602001808311610104575b5050505050905090565b6000338585858560405161013f906101f8565b61014d9594939291906103c8565b604051809103906000f080158015610169573d6000803e3d6000fd5b50600080546001810182559080527f290decd9548b62a8d60345a988386fc84ba6bc95484008f6362f93160ef3e5630180546001600160a01b0319166001600160a01b0383161790556040519091507f37bb6c1f723b45d67f1e74f38d0317e27d160a58f9efcf0dfd9b9d42c78eef5c906101e990839033908990610413565b60405180910390a15050505050565b61144f8061044983390190565b60006020828403121561021757600080fd5b5035919050565b6020808252825182820181905260009190848201906040850190845b8181101561025f5783516001600160a01b03168352928401929184019160010161023a565b50909695505050505050565b634e487b7160e01b600052604160045260246000fd5b600082601f83011261029257600080fd5b813567ffffffffffffffff808211156102ad576102ad61026b565b604051601f8301601f19908116603f011681019082821181831017156102d5576102d561026b565b816040528381528660208588010111156102ee57600080fd5b836020870160208301376000602085830101528094505050505092915050565b6000806000806080858703121561032457600080fd5b843567ffffffffffffffff8082111561033c57600080fd5b61034888838901610281565b9550602087013591508082111561035e57600080fd5b5061036b87828801610281565b949794965050505060408301359260600135919050565b6000815180845260005b818110156103a85760208185018101518683018201520161038c565b506000602082860101526020601f19601f83011685010191505092915050565b6001600160a01b038616815260a0602082018190526000906103ec90830187610382565b82810360408401526103fe8187610382565b60608401959095525050608001529392505050565b6001600160a01b0384811682528316602082015260606040820181905260009061043f90830184610382565b9594505050505056fe60806040523480156200001157600080fd5b506040516200144f3803806200144f833981016040819052620000349162000176565b60017f9b779b17422d0df92223018b32b4d1fa46e071723d6817e2486d003becc55f0055600080546001600160a01b0319166001600160a01b0387161790556001620000818582620002a2565b506002620000908482620002a2565b506003829055620000a281426200036e565b60045550620003969350505050565b634e487b7160e01b600052604160045260246000fd5b600082601f830112620000d957600080fd5b81516001600160401b0380821115620000f657620000f6620000b1565b604051601f8301601f19908116603f01168101908282118183101715620001215762000121620000b1565b816040528381526020925086838588010111156200013e57600080fd5b600091505b8382101562000162578582018301518183018401529082019062000143565b600093810190920192909252949350505050565b600080600080600060a086880312156200018f57600080fd5b85516001600160a01b0381168114620001a757600080fd5b60208701519095506001600160401b0380821115620001c557600080fd5b620001d389838a01620000c7565b95506040880151915080821115620001ea57600080fd5b50620001f988828901620000c7565b606088015160809098015196999598509695949350505050565b600181811c908216806200022857607f821691505b6020821081036200024957634e487b7160e01b600052602260045260246000fd5b50919050565b601f8211156200029d57600081815260208120601f850160051c81016020861015620002785750805b601f850160051c820191505b81811015620002995782815560010162000284565b5050505b505050565b81516001600160401b03811115620002be57620002be620000b1565b620002d681620002cf845462000213565b846200024f565b602080601f8311600181146200030e5760008415620002f55750858301515b600019600386901b1c1916600185901b17855562000299565b600085815260208120601f198616915b828110156200033f578886015182559484019460019091019084016200031e565b50858210156200035e5787850151600019600388901b60f8161c191681555b5050505050600190811b01905550565b808201808211156200039057634e487b7160e01b600052601160045260246000fd5b92915050565b6110a980620003a66000396000f3fe6080604052600436106100e85760003560e01c80637569b3d71161008a578063c5c4744c11610059578063c5c4744c1461025a578063e89e4ed614610270578063eb599e43146102a1578063ed88c68e146102c157600080fd5b80637569b3d7146101ec5780637a3a0e84146102025780637a6f451814610218578063b473f1991461023a57600080fd5b80634051ddac116100c65780634051ddac1461015f57806342e94c90146101885780634a79d50c146101b55780637284e416146101d757600080fd5b806302d05d3f146100ed5780630b49351c1461012a57806329dcb0cf14610149575b600080fd5b3480156100f957600080fd5b5060005461010d906001600160a01b031681565b6040516001600160a01b0390911681526020015b60405180910390f35b34801561013657600080fd5b506008545b604051908152602001610121565b34801561015557600080fd5b5061013b60045481565b34801561016b57600080fd5b506101746102c9565b604051610121989796959493929190610ca3565b34801561019457600080fd5b5061013b6101a3366004610d08565b60076020526000908152604090205481565b3480156101c157600080fd5b506101ca610433565b6040516101219190610d38565b3480156101e357600080fd5b506101ca6104c1565b3480156101f857600080fd5b5061013b60065481565b34801561020e57600080fd5b5061013b60035481565b34801561022457600080fd5b50610238610233366004610d4b565b6104ce565b005b34801561024657600080fd5b50610238610255366004610d7a565b61066b565b34801561026657600080fd5b5061013b60055481565b34801561027c57600080fd5b5061029061028b366004610d4b565b6107a9565b604051610121959493929190610e2f565b3480156102ad57600080fd5b506102386102bc366004610d4b565b61087f565b610238610aa5565b600060608060008060008060008060009054906101000a90046001600160a01b03166001600260035460045460055460065460088054905086805461030d90610e68565b80601f016020809104026020016040519081016040528092919081815260200182805461033990610e68565b80156103865780601f1061035b57610100808354040283529160200191610386565b820191906000526020600020905b81548152906001019060200180831161036957829003601f168201915b5050505050965085805461039990610e68565b80601f01602080910402602001604051908101604052809291908181526020018280546103c590610e68565b80156104125780601f106103e757610100808354040283529160200191610412565b820191906000526020600020905b8154815290600101906020018083116103f557829003601f168201915b50505050509550975097509750975097509750975097509091929394959697565b6001805461044090610e68565b80601f016020809104026020016040519081016040528092919081815260200182805461046c90610e68565b80156104b95780601f1061048e576101008083540402835291602001916104b9565b820191906000526020600020905b81548152906001019060200180831161049c57829003601f168201915b505050505081565b6002805461044090610e68565b3360009081526007602052604090205461052f5760405162461bcd60e51b815260206004820152601a60248201527f4f6e6c7920636f6e7472696275746f72732063616e20766f746500000000000060448201526064015b60405180910390fd5b60006008828154811061054457610544610ea2565b600091825260208083203384526004600590930201918201905260409091205490915060ff16156105a75760405162461bcd60e51b815260206004820152600d60248201526c105b1c9958591e481d9bdd1959609a1b6044820152606401610526565b6003810154610100900460ff16156106015760405162461bcd60e51b815260206004820152601b60248201527f4d696c6573746f6e6520616c72656164792077697468647261776e00000000006044820152606401610526565b3360009081526004820160205260408120805460ff191660011790556002820180549161062d83610ece565b909155505060405182815233907f6adeb3d71effb4aa3e5694a1e198537fdee35acec121631b4f4500642f9528969060200160405180910390a25050565b6000546001600160a01b031633146106c55760405162461bcd60e51b815260206004820152601a60248201527f4f6e6c792063726561746f722063616e2063616c6c20746869730000000000006044820152606401610526565b4781111561070e5760405162461bcd60e51b8152602060048201526016602482015275416d6f756e7420657863656564732062616c616e636560501b6044820152606401610526565b600880546001810182556000919091526005027ff3f7a9fe364faab93b216da50a3214154f22a0a2b415b23a84c8169e8b636ee3018061074e8482610f36565b50600181018290556000600282015560038101805461ffff191690556040517f0cc684c5a5b3eb7573b102e134b9c71823a07d7f3503f183e219c7413ce197909061079c9085908590610ff6565b60405180910390a1505050565b600881815481106107b957600080fd5b90600052602060002090600502016000915090508060000180546107dc90610e68565b80601f016020809104026020016040519081016040528092919081815260200182805461080890610e68565b80156108555780601f1061082a57610100808354040283529160200191610855565b820191906000526020600020905b81548152906001019060200180831161083857829003601f168201915b50505050600183015460028401546003909401549293909290915060ff8082169161010090041685565b6000546001600160a01b031633146108d95760405162461bcd60e51b815260206004820152601a60248201527f4f6e6c792063726561746f722063616e2063616c6c20746869730000000000006044820152606401610526565b6108e1610c11565b6000600882815481106108f6576108f6610ea2565b906000526020600020906005020190508060030160019054906101000a900460ff16156109595760405162461bcd60e51b815260206004820152601160248201527020b63932b0b23c903bb4ba34323930bbb760791b6044820152606401610526565b60026006546109689190611018565b8160020154116109b15760405162461bcd60e51b81526020600482015260146024820152734e6f7420656e6f75676820617070726f76616c7360601b6044820152606401610526565b80600101544710156109fc5760405162461bcd60e51b8152602060048201526014602482015273496e73756666696369656e742062616c616e636560601b6044820152606401610526565b60038101805461ffff19166101011790556000805460018301546040516001600160a01b03909216926108fc8215029290818181858888f19350505050158015610a4a573d6000803e3d6000fd5b5060018101546040805184815260208101929092527f10301f604cb6f07966f42a5a4fb1b4dff7d115c5a6bd11be3784743607b372c9910160405180910390a150610aa2600160008051602061105483398151915255565b50565b610aad610c11565b6004544210610afe5760405162461bcd60e51b815260206004820152601860248201527f43616d706169676e20646561646c696e652070617373656400000000000000006044820152606401610526565b60003411610b5a5760405162461bcd60e51b815260206004820152602360248201527f436f6e747269627574696f6e206d75737420626520677265617465722074686160448201526206e20360ec1b6064820152608401610526565b336000908152600760205260408120549003610b865760068054906000610b8083610ece565b91905055505b3360009081526007602052604081208054349290610ba590849061103a565b925050819055503460056000828254610bbe919061103a565b909155505060405134815233907f2a01595cddf097c90216094025db714da3f4e5bd8877b56ba86a24ecead8e5439060200160405180910390a2610c0f600160008051602061105483398151915255565b565b610c19610c2d565b600260008051602061105483398151915255565b60008051602061105483398151915254600203610c0f57604051633ee5aeb560e01b815260040160405180910390fd5b6000815180845260005b81811015610c8357602081850181015186830182015201610c67565b506000602082860101526020601f19601f83011685010191505092915050565b6001600160a01b038916815261010060208201819052600090610cc88382018b610c5d565b90508281036040840152610cdc818a610c5d565b60608401989098525050608081019490945260a084019290925260c083015260e0909101529392505050565b600060208284031215610d1a57600080fd5b81356001600160a01b0381168114610d3157600080fd5b9392505050565b602081526000610d316020830184610c5d565b600060208284031215610d5d57600080fd5b5035919050565b634e487b7160e01b600052604160045260246000fd5b60008060408385031215610d8d57600080fd5b823567ffffffffffffffff80821115610da557600080fd5b818501915085601f830112610db957600080fd5b813581811115610dcb57610dcb610d64565b604051601f8201601f19908116603f01168101908382118183101715610df357610df3610d64565b81604052828152886020848701011115610e0c57600080fd5b826020860160208301376000602093820184015298969091013596505050505050565b60a081526000610e4260a0830188610c5d565b602083019690965250604081019390935290151560608301521515608090910152919050565b600181811c90821680610e7c57607f821691505b602082108103610e9c57634e487b7160e01b600052602260045260246000fd5b50919050565b634e487b7160e01b600052603260045260246000fd5b634e487b7160e01b600052601160045260246000fd5b600060018201610ee057610ee0610eb8565b5060010190565b601f821115610f3157600081815260208120601f850160051c81016020861015610f0e5750805b601f850160051c820191505b81811015610f2d57828155600101610f1a565b5050505b505050565b815167ffffffffffffffff811115610f5057610f50610d64565b610f6481610f5e8454610e68565b84610ee7565b602080601f831160018114610f995760008415610f815750858301515b600019600386901b1c1916600185901b178555610f2d565b600085815260208120601f198616915b82811015610fc857888601518255948401946001909101908401610fa9565b5085821015610fe65787850151600019600388901b60f8161c191681555b5050505050600190811b01905550565b6040815260006110096040830185610c5d565b90508260208301529392505050565b60008261103557634e487b7160e01b600052601260045260246000fd5b500490565b8082018082111561104d5761104d610eb8565b9291505056fe9b779b17422d0df92223018b32b4d1fa46e071723d6817e2486d003becc55f00a264697066735822122049691015567fe62d0ec93a1e089159060707b4f2260450d0acc7c3a79f262e1764736f6c63430008140033a26469706673582212207d87ebea3451b7522394ace8eddadca5ff4de8d2eb9ec4ed972c8eab667c927a64736f6c63430008140033","opcodes":"PUSH1 0x80 PUSH1 0x40 MSTORE CALLVALUE DUP1 ISZERO PUSH2 0x10 JUMPI PUSH1 0x0 DUP1 REVERT JUMPDEST POP PUSH2 0x18CD DUP1 PUSH2 0x20 PUSH1 0x0 CODECOPY PUSH1 0x0 RETURN INVALID PUSH1 0x80 PUSH1 0x40 MSTORE CALLVALUE DUP1 ISZERO PUSH2 0x10 JUMPI PUSH1 0x0 DUP1 REVERT JUMPDEST POP PUSH1 0x4 CALLDATASIZE LT PUSH2 0x41 JUMPI PUSH1 0x0 CALLDATALOAD PUSH1 0xE0 SHR DUP1 PUSH4 0x339D50A5 EQ PUSH2 0x46 JUMPI DUP1 PUSH4 0x4ACB9D4F EQ PUSH2 0x76 JUMPI DUP1 PUSH4 0xA318F269 EQ PUSH2 0x8B JUMPI JUMPDEST PUSH1 0x0 DUP1 REVERT JUMPDEST PUSH2 0x59 PUSH2 0x54 CALLDATASIZE PUSH1 0x4 PUSH2 0x205 JUMP JUMPDEST PUSH2 0xA0 JUMP JUMPDEST PUSH1 0x40 MLOAD PUSH1 0x1 PUSH1 0x1 PUSH1 0xA0 SHL SUB SWAP1 SWAP2 AND DUP2 MSTORE PUSH1 0x20 ADD JUMPDEST PUSH1 0x40 MLOAD DUP1 SWAP2 SUB SWAP1 RETURN JUMPDEST PUSH2 0x7E PUSH2 0xCA JUMP JUMPDEST PUSH1 0x40 MLOAD PUSH2 0x6D SWAP2 SWAP1 PUSH2 0x21E JUMP JUMPDEST PUSH2 0x9E PUSH2 0x99 CALLDATASIZE PUSH1 0x4 PUSH2 0x30E JUMP JUMPDEST PUSH2 0x12C JUMP JUMPDEST STOP JUMPDEST PUSH1 0x0 DUP2 DUP2 SLOAD DUP2 LT PUSH2 0xB0 JUMPI PUSH1 0x0 DUP1 REVERT JUMPDEST PUSH1 0x0 SWAP2 DUP3 MSTORE PUSH1 0x20 SWAP1 SWAP2 KECCAK256 ADD SLOAD PUSH1 0x1 PUSH1 0x1 PUSH1 0xA0 SHL SUB AND SWAP1 POP DUP2 JUMP JUMPDEST PUSH1 0x60 PUSH1 0x0 DUP1 SLOAD DUP1 PUSH1 0x20 MUL PUSH1 0x20 ADD PUSH1 0x40 MLOAD SWAP1 DUP2 ADD PUSH1 0x40 MSTORE DUP1 SWAP3 SWAP2 SWAP1 DUP2 DUP2 MSTORE PUSH1 0x20 ADD DUP3 DUP1 SLOAD DUP1 ISZERO PUSH2 0x122 JUMPI PUSH1 0x20 MUL DUP3 ADD SWAP2 SWAP1 PUSH1 0x0 MSTORE PUSH1 0x20 PUSH1 0x0 KECCAK256 SWAP1 JUMPDEST DUP2 SLOAD PUSH1 0x1 PUSH1 0x1 PUSH1 0xA0 SHL SUB AND DUP2 MSTORE PUSH1 0x1 SWAP1 SWAP2 ADD SWAP1 PUSH1 0x20 ADD DUP1 DUP4 GT PUSH2 0x104 JUMPI JUMPDEST POP POP POP POP POP SWAP1 POP SWAP1 JUMP JUMPDEST PUSH1 0x0 CALLER DUP6 DUP6 DUP6 DUP6 PUSH1 0x40 MLOAD PUSH2 0x13F SWAP1 PUSH2 0x1F8 JUMP JUMPDEST PUSH2 0x14D SWAP6 SWAP5 SWAP4 SWAP3 SWAP2 SWAP1 PUSH2 0x3C8 JUMP JUMPDEST PUSH1 0x40 MLOAD DUP1 SWAP2 SUB SWAP1 PUSH1 0x0 CREATE DUP1 ISZERO DUP1 ISZERO PUSH2 0x169 JUMPI RETURNDATASIZE PUSH1 0x0 DUP1 RETURNDATACOPY RETURNDATASIZE PUSH1 0x0 REVERT JUMPDEST POP PUSH1 0x0 DUP1 SLOAD PUSH1 0x1 DUP2 ADD DUP3 SSTORE SWAP1 DUP1 MSTORE PUSH32 0x290DECD9548B62A8D60345A988386FC84BA6BC95484008F6362F93160EF3E563 ADD DUP1 SLOAD PUSH1 0x1 PUSH1 0x1 PUSH1 0xA0 SHL SUB NOT AND PUSH1 0x1 PUSH1 0x1 PUSH1 0xA0 SHL SUB DUP4 AND OR SWAP1 SSTORE PUSH1 0x40 MLOAD SWAP1 SWAP2 POP PUSH32 0x37BB6C1F723B45D67F1E74F38D0317E27D160A58F9EFCF0DFD9B9D42C78EEF5C SWAP1 PUSH2 0x1E9 SWAP1 DUP4 SWAP1 CALLER SWAP1 DUP10 SWAP1 PUSH2 0x413 JUMP JUMPDEST PUSH1 0x40 MLOAD DUP1 SWAP2 SUB SWAP1 LOG1 POP POP POP POP POP JUMP JUMPDEST PUSH2 0x144F DUP1 PUSH2 0x449 DUP4 CODECOPY ADD SWAP1 JUMP JUMPDEST PUSH1 0x0 PUSH1 0x20 DUP3 DUP5 SUB SLT ISZERO PUSH2 0x217 JUMPI PUSH1 0x0 DUP1 REVERT JUMPDEST POP CALLDATALOAD SWAP2 SWAP1 POP JUMP JUMPDEST PUSH1 0x20 DUP1 DUP3 MSTORE DUP3 MLOAD DUP3 DUP3 ADD DUP2 SWAP1 MSTORE PUSH1 0x0 SWAP2 SWAP1 DUP5 DUP3 ADD SWAP1 PUSH1 0x40 DUP6 ADD SWAP1 DUP5 JUMPDEST DUP2 DUP2 LT ISZERO PUSH2 0x25F JUMPI DUP4 MLOAD PUSH1 0x1 PUSH1 0x1 PUSH1 0xA0 SHL SUB AND DUP4 MSTORE SWAP3 DUP5 ADD SWAP3 SWAP2 DUP5 ADD SWAP2 PUSH1 0x1 ADD PUSH2 0x23A JUMP JUMPDEST POP SWAP1 SWAP7 SWAP6 POP POP POP POP POP POP JUMP JUMPDEST PUSH4 0x4E487B71 PUSH1 0xE0 SHL PUSH1 0x0 MSTORE PUSH1 0x41 PUSH1 0x4 MSTORE PUSH1 0x24 PUSH1 0x0 REVERT JUMPDEST PUSH1 0x0 DUP3 PUSH1 0x1F DUP4 ADD SLT PUSH2 0x292 JUMPI PUSH1 0x0 DUP1 REVERT JUMPDEST DUP2 CALLDATALOAD PUSH8 0xFFFFFFFFFFFFFFFF DUP1 DUP3 GT ISZERO PUSH2 0x2AD JUMPI PUSH2 0x2AD PUSH2 0x26B JUMP JUMPDEST PUSH1 0x40 MLOAD PUSH1 0x1F DUP4 ADD PUSH1 0x1F NOT SWAP1 DUP2 AND PUSH1 0x3F ADD AND DUP2 ADD SWAP1 DUP3 DUP3 GT DUP2 DUP4 LT OR ISZERO PUSH2 0x2D5 JUMPI PUSH2 0x2D5 PUSH2 0x26B JUMP JUMPDEST DUP2 PUSH1 0x40 MSTORE DUP4 DUP2 MSTORE DUP7 PUSH1 0x20 DUP6 DUP9 ADD ADD GT ISZERO PUSH2 0x2EE JUMPI PUSH1 0x0 DUP1 REVERT JUMPDEST DUP4 PUSH1 0x20 DUP8 ADD PUSH1 0x20 DUP4 ADD CALLDATACOPY PUSH1 0x0 PUSH1 0x20 DUP6 DUP4 ADD ADD MSTORE DUP1 SWAP5 POP POP POP POP POP SWAP3 SWAP2 POP POP JUMP JUMPDEST PUSH1 0x0 DUP1 PUSH1 0x0 DUP1 PUSH1 0x80 DUP6 DUP8 SUB SLT ISZERO PUSH2 0x324 JUMPI PUSH1 0x0 DUP1 REVERT JUMPDEST DUP5 CALLDATALOAD PUSH8 0xFFFFFFFFFFFFFFFF DUP1 DUP3 GT ISZERO PUSH2 0x33C JUMPI PUSH1 0x0 DUP1 REVERT JUMPDEST PUSH2 0x348 DUP9 DUP4 DUP10 ADD PUSH2 0x281 JUMP JUMPDEST SWAP6 POP PUSH1 0x20 DUP8 ADD CALLDATALOAD SWAP2 POP DUP1 DUP3 GT ISZERO PUSH2 0x35E JUMPI PUSH1 0x0 DUP1 REVERT JUMPDEST POP PUSH2 0x36B DUP8 DUP3 DUP9 ADD PUSH2 0x281 JUMP JUMPDEST SWAP5 SWAP8 SWAP5 SWAP7 POP POP POP POP PUSH1 0x40 DUP4 ADD CALLDATALOAD SWAP3 PUSH1 0x60 ADD CALLDATALOAD SWAP2 SWAP1 POP JUMP JUMPDEST PUSH1 0x0 DUP2 MLOAD DUP1 DUP5 MSTORE PUSH1 0x0 JUMPDEST DUP2 DUP2 LT ISZERO PUSH2 0x3A8 JUMPI PUSH1 0x20 DUP2 DUP6 ADD DUP2 ADD MLOAD DUP7 DUP4 ADD DUP3 ADD MSTORE ADD PUSH2 0x38C JUMP JUMPDEST POP PUSH1 0x0 PUSH1 0x20 DUP3 DUP7 ADD ADD MSTORE PUSH1 0x20 PUSH1 0x1F NOT PUSH1 0x1F DUP4 ADD AND DUP6 ADD ADD SWAP2 POP POP SWAP3 SWAP2 POP POP JUMP JUMPDEST PUSH1 0x1 PUSH1 0x1 PUSH1 0xA0 SHL SUB DUP7 AND DUP2 MSTORE PUSH1 0xA0 PUSH1 0x20 DUP3 ADD DUP2 SWAP1 MSTORE PUSH1 0x0 SWAP1 PUSH2 0x3EC SWAP1 DUP4 ADD DUP8 PUSH2 0x382 JUMP JUMPDEST DUP3 DUP2 SUB PUSH1 0x40 DUP5 ADD MSTORE PUSH2 0x3FE DUP2 DUP8 PUSH2 0x382 JUMP JUMPDEST PUSH1 0x60 DUP5 ADD SWAP6 SWAP1 SWAP6 MSTORE POP POP PUSH1 0x80 ADD MSTORE SWAP4 SWAP3 POP POP POP JUMP JUMPDEST PUSH1 0x1 PUSH1 0x1 PUSH1 0xA0 SHL SUB DUP5 DUP2 AND DUP3 MSTORE DUP4 AND PUSH1 0x20 DUP3 ADD MSTORE PUSH1 0x60 PUSH1 0x40 DUP3 ADD DUP2 SWAP1 MSTORE PUSH1 0x0 SWAP1 PUSH2 0x43F SWAP1 DUP4 ADD DUP5 PUSH2 0x382 JUMP JUMPDEST SWAP6 SWAP5 POP POP POP POP POP JUMP INVALID PUSH1 0x80 PUSH1 0x40 MSTORE CALLVALUE DUP1 ISZERO PUSH3 0x11 JUMPI PUSH1 0x0 DUP1 REVERT JUMPDEST POP PUSH1 0x40 MLOAD PUSH3 0x144F CODESIZE SUB DUP1 PUSH3 0x144F DUP4 CODECOPY DUP2 ADD PUSH1 0x40 DUP2 SWAP1 MSTORE PUSH3 0x34 SWAP2 PUSH3 0x176 JUMP JUMPDEST PUSH1 0x1 PUSH32 0x9B779B17422D0DF92223018B32B4D1FA46E071723D6817E2486D003BECC55F00 SSTORE PUSH1 0x0 DUP1 SLOAD PUSH1 0x1 PUSH1 0x1 PUSH1 0xA0 SHL SUB NOT AND PUSH1 0x1 PUSH1 0x1 PUSH1 0xA0 SHL SUB DUP8 AND OR SWAP1 SSTORE PUSH1 0x1 PUSH3 0x81 DUP6 DUP3 PUSH3 0x2A2 JUMP JUMPDEST POP PUSH1 0x2 PUSH3 0x90 DUP5 DUP3 PUSH3 0x2A2 JUMP JUMPDEST POP PUSH1 0x3 DUP3 SWAP1 SSTORE PUSH3 0xA2 DUP2 TIMESTAMP PUSH3 0x36E JUMP JUMPDEST PUSH1 0x4 SSTORE POP PUSH3 0x396 SWAP4 POP POP POP POP JUMP JUMPDEST PUSH4 0x4E487B71 PUSH1 0xE0 SHL PUSH1 0x0 MSTORE PUSH1 0x41 PUSH1 0x4 MSTORE PUSH1 0x24 PUSH1 0x0 REVERT JUMPDEST PUSH1 0x0 DUP3 PUSH1 0x1F DUP4 ADD SLT PUSH3 0xD9 JUMPI PUSH1 0x0 DUP1 REVERT JUMPDEST DUP2 MLOAD PUSH1 0x1 PUSH1 0x1 PUSH1 0x40 SHL SUB DUP1 DUP3 GT ISZERO PUSH3 0xF6 JUMPI PUSH3 0xF6 PUSH3 0xB1 JUMP JUMPDEST PUSH1 0x40 MLOAD PUSH1 0x1F DUP4 ADD PUSH1 0x1F NOT SWAP1 DUP2 AND PUSH1 0x3F ADD AND DUP2 ADD SWAP1 DUP3 DUP3 GT DUP2 DUP4 LT OR ISZERO PUSH3 0x121 JUMPI PUSH3 0x121 PUSH3 0xB1 JUMP JUMPDEST DUP2 PUSH1 0x40 MSTORE DUP4 DUP2 MSTORE PUSH1 0x20 SWAP3 POP DUP7 DUP4 DUP6 DUP9 ADD ADD GT ISZERO PUSH3 0x13E JUMPI PUSH1 0x0 DUP1 REVERT JUMPDEST PUSH1 0x0 SWAP2 POP JUMPDEST DUP4 DUP3 LT ISZERO PUSH3 0x162 JUMPI DUP6 DUP3 ADD DUP4 ADD MLOAD DUP2 DUP4 ADD DUP5 ADD MSTORE SWAP1 DUP3 ADD SWAP1 PUSH3 0x143 JUMP JUMPDEST PUSH1 0x0 SWAP4 DUP2 ADD SWAP1 SWAP3 ADD SWAP3 SWAP1 SWAP3 MSTORE SWAP5 SWAP4 POP POP POP POP JUMP JUMPDEST PUSH1 0x0 DUP1 PUSH1 0x0 DUP1 PUSH1 0x0 PUSH1 0xA0 DUP7 DUP9 SUB SLT ISZERO PUSH3 0x18F JUMPI PUSH1 0x0 DUP1 REVERT JUMPDEST DUP6 MLOAD PUSH1 0x1 PUSH1 0x1 PUSH1 0xA0 SHL SUB DUP2 AND DUP2 EQ PUSH3 0x1A7 JUMPI PUSH1 0x0 DUP1 REVERT JUMPDEST PUSH1 0x20 DUP8 ADD MLOAD SWAP1 SWAP6 POP PUSH1 0x1 PUSH1 0x1 PUSH1 0x40 SHL SUB DUP1 DUP3 GT ISZERO PUSH3 0x1C5 JUMPI PUSH1 0x0 DUP1 REVERT JUMPDEST PUSH3 0x1D3 DUP10 DUP4 DUP11 ADD PUSH3 0xC7 JUMP JUMPDEST SWAP6 POP PUSH1 0x40 DUP9 ADD MLOAD SWAP2 POP DUP1 DUP3 GT ISZERO PUSH3 0x1EA JUMPI PUSH1 0x0 DUP1 REVERT JUMPDEST POP PUSH3 0x1F9 DUP9 DUP3 DUP10 ADD PUSH3 0xC7 JUMP JUMPDEST PUSH1 0x60 DUP9 ADD MLOAD PUSH1 0x80 SWAP1 SWAP9 ADD MLOAD SWAP7 SWAP10 SWAP6 SWAP9 POP SWAP7 SWAP6 SWAP5 SWAP4 POP POP POP POP JUMP JUMPDEST PUSH1 0x1 DUP2 DUP2 SHR SWAP1 DUP3 AND DUP1 PUSH3 0x228 JUMPI PUSH1 0x7F DUP3 AND SWAP2 POP JUMPDEST PUSH1 0x20 DUP3 LT DUP2 SUB PUSH3 0x249 JUMPI PUSH4 0x4E487B71 PUSH1 0xE0 SHL PUSH1 0x0 MSTORE PUSH1 0x22 PUSH1 0x4 MSTORE PUSH1 0x24 PUSH1 0x0 REVERT JUMPDEST POP SWAP2 SWAP1 POP JUMP JUMPDEST PUSH1 0x1F DUP3 GT ISZERO PUSH3 0x29D JUMPI PUSH1 0x0 DUP2 DUP2 MSTORE PUSH1 0x20 DUP2 KECCAK256 PUSH1 0x1F DUP6 ADD PUSH1 0x5 SHR DUP2 ADD PUSH1 0x20 DUP7 LT ISZERO PUSH3 0x278 JUMPI POP DUP1 JUMPDEST PUSH1 0x1F DUP6 ADD PUSH1 0x5 SHR DUP3 ADD SWAP2 POP JUMPDEST DUP2 DUP2 LT ISZERO PUSH3 0x299 JUMPI DUP3 DUP2 SSTORE PUSH1 0x1 ADD PUSH3 0x284 JUMP JUMPDEST POP POP POP JUMPDEST POP POP POP JUMP JUMPDEST DUP2 MLOAD PUSH1 0x1 PUSH1 0x1 PUSH1 0x40 SHL SUB DUP2 GT ISZERO PUSH3 0x2BE JUMPI PUSH3 0x2BE PUSH3 0xB1 JUMP JUMPDEST PUSH3 0x2D6 DUP2 PUSH3 0x2CF DUP5 SLOAD PUSH3 0x213 JUMP JUMPDEST DUP5 PUSH3 0x24F JUMP JUMPDEST PUSH1 0x20 DUP1 PUSH1 0x1F DUP4 GT PUSH1 0x1 DUP2 EQ PUSH3 0x30E JUMPI PUSH1 0x0 DUP5 ISZERO PUSH3 0x2F5 JUMPI POP DUP6 DUP4 ADD MLOAD JUMPDEST PUSH1 0x0 NOT PUSH1 0x3 DUP7 SWAP1 SHL SHR NOT AND PUSH1 0x1 DUP6 SWAP1 SHL OR DUP6 SSTORE PUSH3 0x299 JUMP JUMPDEST PUSH1 0x0 DUP6 DUP2 MSTORE PUSH1 0x20 DUP2 KECCAK256 PUSH1 0x1F NOT DUP7 AND SWAP2 JUMPDEST DUP3 DUP2 LT ISZERO PUSH3 0x33F JUMPI DUP9 DUP7 ADD MLOAD DUP3 SSTORE SWAP5 DUP5 ADD SWAP5 PUSH1 0x1 SWAP1 SWAP2 ADD SWAP1 DUP5 ADD PUSH3 0x31E JUMP JUMPDEST POP DUP6 DUP3 LT ISZERO PUSH3 0x35E JUMPI DUP8 DUP6 ADD MLOAD PUSH1 0x0 NOT PUSH1 0x3 DUP9 SWAP1 SHL PUSH1 0xF8 AND SHR NOT AND DUP2 SSTORE JUMPDEST POP POP POP POP POP PUSH1 0x1 SWAP1 DUP2 SHL ADD SWAP1 SSTORE POP JUMP JUMPDEST DUP1 DUP3 ADD DUP1 DUP3 GT ISZERO PUSH3 0x390 JUMPI PUSH4 0x4E487B71 PUSH1 0xE0 SHL PUSH1 0x0 MSTORE PUSH1 0x11 PUSH1 0x4 MSTORE PUSH1 0x24 PUSH1 0x0 REVERT JUMPDEST SWAP3 SWAP2 POP POP JUMP JUMPDEST PUSH2 0x10A9 DUP1 PUSH3 0x3A6 PUSH1 0x0 CODECOPY PUSH1 0x0 RETURN INVALID PUSH1 0x80 PUSH1 0x40 MSTORE PUSH1 0x4 CALLDATASIZE LT PUSH2 0xE8 JUMPI PUSH1 0x0 CALLDATALOAD PUSH1 0xE0 SHR DUP1 PUSH4 0x7569B3D7 GT PUSH2 0x8A JUMPI DUP1 PUSH4 0xC5C4744C GT PUSH2 0x59 JUMPI DUP1 PUSH4 0xC5C4744C EQ PUSH2 0x25A JUMPI DUP1 PUSH4 0xE89E4ED6 EQ PUSH2 0x270 JUMPI DUP1 PUSH4 0xEB599E43 EQ PUSH2 0x2A1 JUMPI DUP1 PUSH4 0xED88C68E EQ PUSH2 0x2C1 JUMPI PUSH1 0x0 DUP1 REVERT JUMPDEST DUP1 PUSH4 0x7569B3D7 EQ PUSH2 0x1EC JUMPI DUP1 PUSH4 0x7A3A0E84 EQ PUSH2 0x202 JUMPI DUP1 PUSH4 0x7A6F4518 EQ PUSH2 0x218 JUMPI DUP1 PUSH4 0xB473F199 EQ PUSH2 0x23A JUMPI PUSH1 0x0 DUP1 REVERT JUMPDEST DUP1 PUSH4 0x4051DDAC GT PUSH2 0xC6 JUMPI DUP1 PUSH4 0x4051DDAC EQ PUSH2 0x15F JUMPI DUP1 PUSH4 0x42E94C90 EQ PUSH2 0x188 JUMPI DUP1 PUSH4 0x4A79D50C EQ PUSH2 0x1B5 JUMPI DUP1 PUSH4 0x7284E416 EQ PUSH2 0x1D7 JUMPI PUSH1 0x0 DUP1 REVERT JUMPDEST DUP1 PUSH4 0x2D05D3F EQ PUSH2 0xED JUMPI DUP1 PUSH4 0xB49351C EQ PUSH2 0x12A JUMPI DUP1 PUSH4 0x29DCB0CF EQ PUSH2 0x149 JUMPI JUMPDEST PUSH1 0x0 DUP1 REVERT JUMPDEST CALLVALUE DUP1 ISZERO PUSH2 0xF9 JUMPI PUSH1 0x0 DUP1 REVERT JUMPDEST POP PUSH1 0x0 SLOAD PUSH2 0x10D SWAP1 PUSH1 0x1 PUSH1 0x1 PUSH1 0xA0 SHL SUB AND DUP2 JUMP JUMPDEST PUSH1 0x40 MLOAD PUSH1 0x1 PUSH1 0x1 PUSH1 0xA0 SHL SUB SWAP1 SWAP2 AND DUP2 MSTORE PUSH1 0x20 ADD JUMPDEST PUSH1 0x40 MLOAD DUP1 SWAP2 SUB SWAP1 RETURN JUMPDEST CALLVALUE DUP1 ISZERO PUSH2 0x136 JUMPI PUSH1 0x0 DUP1 REVERT JUMPDEST POP PUSH1 0x8 SLOAD JUMPDEST PUSH1 0x40 MLOAD SWAP1 DUP2 MSTORE PUSH1 0x20 ADD PUSH2 0x121 JUMP JUMPDEST CALLVALUE DUP1 ISZERO PUSH2 0x155 JUMPI PUSH1 0x0 DUP1 REVERT JUMPDEST POP PUSH2 0x13B PUSH1 0x4 SLOAD DUP2 JUMP JUMPDEST CALLVALUE DUP1 ISZERO PUSH2 0x16B JUMPI PUSH1 0x0 DUP1 REVERT JUMPDEST POP PUSH2 0x174 PUSH2 0x2C9 JUMP JUMPDEST PUSH1 0x40 MLOAD PUSH2 0x121 SWAP9 SWAP8 SWAP7 SWAP6 SWAP5 SWAP4 SWAP3 SWAP2 SWAP1 PUSH2 0xCA3 JUMP JUMPDEST CALLVALUE DUP1 ISZERO PUSH2 0x194 JUMPI PUSH1 0x0 DUP1 REVERT JUMPDEST POP PUSH2 0x13B PUSH2 0x1A3 CALLDATASIZE PUSH1 0x4 PUSH2 0xD08 JUMP JUMPDEST PUSH1 0x7 PUSH1 0x20 MSTORE PUSH1 0x0 SWAP1 DUP2 MSTORE PUSH1 0x40 SWAP1 KECCAK256 SLOAD DUP2 JUMP JUMPDEST CALLVALUE DUP1 ISZERO PUSH2 0x1C1 JUMPI PUSH1 0x0 DUP1 REVERT JUMPDEST POP PUSH2 0x1CA PUSH2 0x433 JUMP JUMPDEST PUSH1 0x40 MLOAD PUSH2 0x121 SWAP2 SWAP1 PUSH2 0xD38 JUMP JUMPDEST CALLVALUE DUP1 ISZERO PUSH2 0x1E3 JUMPI PUSH1 0x0 DUP1 REVERT JUMPDEST POP PUSH2 0x1CA PUSH2 0x4C1 JUMP JUMPDEST CALLVALUE DUP1 ISZERO PUSH2 0x1F8 JUMPI PUSH1 0x0 DUP1 REVERT JUMPDEST POP PUSH2 0x13B PUSH1 0x6 SLOAD DUP2 JUMP JUMPDEST CALLVALUE DUP1 ISZERO PUSH2 0x20E JUMPI PUSH1 0x0 DUP1 REVERT JUMPDEST POP PUSH2 0x13B PUSH1 0x3 SLOAD DUP2 JUMP JUMPDEST CALLVALUE DUP1 ISZERO PUSH2 0x224 JUMPI PUSH1 0x0 DUP1 REVERT JUMPDEST POP PUSH2 0x238 PUSH2 0x233 CALLDATASIZE PUSH1 0x4 PUSH2 0xD4B JUMP JUMPDEST PUSH2 0x4CE JUMP JUMPDEST STOP JUMPDEST CALLVALUE DUP1 ISZERO PUSH2 0x246 JUMPI PUSH1 0x0 DUP1 REVERT JUMPDEST POP PUSH2 0x238 PUSH2 0x255 CALLDATASIZE PUSH1 0x4 PUSH2 0xD7A JUMP JUMPDEST PUSH2 0x66B JUMP JUMPDEST CALLVALUE DUP1 ISZERO PUSH2 0x266 JUMPI PUSH1 0x0 DUP1 REVERT JUMPDEST POP PUSH2 0x13B PUSH1 0x5 SLOAD DUP2 JUMP JUMPDEST CALLVALUE DUP1 ISZERO PUSH2 0x27C JUMPI PUSH1 0x0 DUP1 REVERT JUMPDEST POP PUSH2 0x290 PUSH2 0x28B CALLDATASIZE PUSH1 0x4 PUSH2 0xD4B JUMP JUMPDEST PUSH2 0x7A9 JUMP JUMPDEST PUSH1 0x40 MLOAD PUSH2 0x121 SWAP6 SWAP5 SWAP4 SWAP3 SWAP2 SWAP1 PUSH2 0xE2F JUMP JUMPDEST CALLVALUE DUP1 ISZERO PUSH2 0x2AD JUMPI PUSH1 0x0 DUP1 REVERT JUMPDEST POP PUSH2 0x238 PUSH2 0x2BC CALLDATASIZE PUSH1 0x4 PUSH2 0xD4B JUMP JUMPDEST PUSH2 0x87F JUMP JUMPDEST PUSH2 0x238 PUSH2 0xAA5 JUMP JUMPDEST PUSH1 0x0 PUSH1 0x60 DUP1 PUSH1 0x0 DUP1 PUSH1 0x0 DUP1 PUSH1 0x0 DUP1 PUSH1 0x0 SWAP1 SLOAD SWAP1 PUSH2 0x100 EXP SWAP1 DIV PUSH1 0x1 PUSH1 0x1 PUSH1 0xA0 SHL SUB AND PUSH1 0x1 PUSH1 0x2 PUSH1 0x3 SLOAD PUSH1 0x4 SLOAD PUSH1 0x5 SLOAD PUSH1 0x6 SLOAD PUSH1 0x8 DUP1 SLOAD SWAP1 POP DUP7 DUP1 SLOAD PUSH2 0x30D SWAP1 PUSH2 0xE68 JUMP JUMPDEST DUP1 PUSH1 0x1F ADD PUSH1 0x20 DUP1 SWAP2 DIV MUL PUSH1 0x20 ADD PUSH1 0x40 MLOAD SWAP1 DUP2 ADD PUSH1 0x40 MSTORE DUP1 SWAP3 SWAP2 SWAP1 DUP2 DUP2 MSTORE PUSH1 0x20 ADD DUP3 DUP1 SLOAD PUSH2 0x339 SWAP1 PUSH2 0xE68 JUMP JUMPDEST DUP1 ISZERO PUSH2 0x386 JUMPI DUP1 PUSH1 0x1F LT PUSH2 0x35B JUMPI PUSH2 0x100 DUP1 DUP4 SLOAD DIV MUL DUP4 MSTORE SWAP2 PUSH1 0x20 ADD SWAP2 PUSH2 0x386 JUMP JUMPDEST DUP3 ADD SWAP2 SWAP1 PUSH1 0x0 MSTORE PUSH1 0x20 PUSH1 0x0 KECCAK256 SWAP1 JUMPDEST DUP2 SLOAD DUP2 MSTORE SWAP1 PUSH1 0x1 ADD SWAP1 PUSH1 0x20 ADD DUP1 DUP4 GT PUSH2 0x369 JUMPI DUP3 SWAP1 SUB PUSH1 0x1F AND DUP3 ADD SWAP2 JUMPDEST POP POP POP POP POP SWAP7 POP DUP6 DUP1 SLOAD PUSH2 0x399 SWAP1 PUSH2 0xE68 JUMP JUMPDEST DUP1 PUSH1 0x1F ADD PUSH1 0x20 DUP1 SWAP2 DIV MUL PUSH1 0x20 ADD PUSH1 0x40 MLOAD SWAP1 DUP2 ADD PUSH1 0x40 MSTORE DUP1 SWAP3 SWAP2 SWAP1 DUP2 DUP2 MSTORE PUSH1 0x20 ADD DUP3 DUP1 SLOAD PUSH2 0x3C5 SWAP1 PUSH2 0xE68 JUMP JUMPDEST DUP1 ISZERO PUSH2 0x412 JUMPI DUP1 PUSH1 0x1F LT PUSH2 0x3E7 JUMPI PUSH2 0x100 DUP1 DUP4 SLOAD DIV MUL DUP4 MSTORE SWAP2 PUSH1 0x20 ADD SWAP2 PUSH2 0x412 JUMP JUMPDEST DUP3 ADD SWAP2 SWAP1 PUSH1 0x0 MSTORE PUSH1 0x20 PUSH1 0x0 KECCAK256 SWAP1 JUMPDEST DUP2 SLOAD DUP2 MSTORE SWAP1 PUSH1 0x1 ADD SWAP1 PUSH1 0x20 ADD DUP1 DUP4 GT PUSH2 0x3F5 JUMPI DUP3 SWAP1 SUB PUSH1 0x1F AND DUP3 ADD SWAP2 JUMPDEST POP POP POP POP POP SWAP6 POP SWAP8 POP SWAP8 POP SWAP8 POP SWAP8 POP SWAP8 POP SWAP8 POP SWAP8 POP SWAP8 POP SWAP1 SWAP2 SWAP3 SWAP4 SWAP5 SWAP6 SWAP7 SWAP8 JUMP JUMPDEST PUSH1 0x1 DUP1 SLOAD PUSH2 0x440 SWAP1 PUSH2 0xE68 JUMP JUMPDEST DUP1 PUSH1 0x1F ADD PUSH1 0x20 DUP1 SWAP2 DIV MUL PUSH1 0x20 ADD PUSH1 0x40 MLOAD SWAP1 DUP2 ADD PUSH1 0x40 MSTORE DUP1 SWAP3 SWAP2 SWAP1 DUP2 DUP2 MSTORE PUSH1 0x20 ADD DUP3 DUP1 SLOAD PUSH2 0x46C SWAP1 PUSH2 0xE68 JUMP JUMPDEST DUP1 ISZERO PUSH2 0x4B9 JUMPI DUP1 PUSH1 0x1F LT PUSH2 0x48E JUMPI PUSH2 0x100 DUP1 DUP4 SLOAD DIV MUL DUP4 MSTORE SWAP2 PUSH1 0x20 ADD SWAP2 PUSH2 0x4B9 JUMP JUMPDEST DUP3 ADD SWAP2 SWAP1 PUSH1 0x0 MSTORE PUSH1 0x20 PUSH1 0x0 KECCAK256 SWAP1 JUMPDEST DUP2 SLOAD DUP2 MSTORE SWAP1 PUSH1 0x1 ADD SWAP1 PUSH1 0x20 ADD DUP1 DUP4 GT PUSH2 0x49C JUMPI DUP3 SWAP1 SUB PUSH1 0x1F AND DUP3 ADD SWAP2 JUMPDEST POP POP POP POP POP DUP2 JUMP JUMPDEST PUSH1 0x2 DUP1 SLOAD PUSH2 0x440 SWAP1 PUSH2 0xE68 JUMP JUMPDEST CALLER PUSH1 0x0 SWAP1 DUP2 MSTORE PUSH1 0x7 PUSH1 0x20 MSTORE PUSH1 0x40 SWAP1 KECCAK256 SLOAD PUSH2 0x52F JUMPI PUSH1 0x40 MLOAD PUSH3 0x461BCD PUSH1 0xE5 SHL DUP2 MSTORE PUSH1 0x20 PUSH1 0x4 DUP3 ADD MSTORE PUSH1 0x1A PUSH1 0x24 DUP3 ADD MSTORE PUSH32 0x4F6E6C7920636F6E7472696275746F72732063616E20766F7465000000000000 PUSH1 0x44 DUP3 ADD MSTORE PUSH1 0x64 ADD JUMPDEST PUSH1 0x40 MLOAD DUP1 SWAP2 SUB SWAP1 REVERT JUMPDEST PUSH1 0x0 PUSH1 0x8 DUP3 DUP2 SLOAD DUP2 LT PUSH2 0x544 JUMPI PUSH2 0x544 PUSH2 0xEA2 JUMP JUMPDEST PUSH1 0x0 SWAP2 DUP3 MSTORE PUSH1 0x20 DUP1 DUP4 KECCAK256 CALLER DUP5 MSTORE PUSH1 0x4 PUSH1 0x5 SWAP1 SWAP4 MUL ADD SWAP2 DUP3 ADD SWAP1 MSTORE PUSH1 0x40 SWAP1 SWAP2 KECCAK256 SLOAD SWAP1 SWAP2 POP PUSH1 0xFF AND ISZERO PUSH2 0x5A7 JUMPI PUSH1 0x40 MLOAD PUSH3 0x461BCD PUSH1 0xE5 SHL DUP2 MSTORE PUSH1 0x20 PUSH1 0x4 DUP3 ADD MSTORE PUSH1 0xD PUSH1 0x24 DUP3 ADD MSTORE PUSH13 0x105B1C9958591E481D9BDD1959 PUSH1 0x9A SHL PUSH1 0x44 DUP3 ADD MSTORE PUSH1 0x64 ADD PUSH2 0x526 JUMP JUMPDEST PUSH1 0x3 DUP2 ADD SLOAD PUSH2 0x100 SWAP1 DIV PUSH1 0xFF AND ISZERO PUSH2 0x601 JUMPI PUSH1 0x40 MLOAD PUSH3 0x461BCD PUSH1 0xE5 SHL DUP2 MSTORE PUSH1 0x20 PUSH1 0x4 DUP3 ADD MSTORE PUSH1 0x1B PUSH1 0x24 DUP3 ADD MSTORE PUSH32 0x4D696C6573746F6E6520616C72656164792077697468647261776E0000000000 PUSH1 0x44 DUP3 ADD MSTORE PUSH1 0x64 ADD PUSH2 0x526 JUMP JUMPDEST CALLER PUSH1 0x0 SWAP1 DUP2 MSTORE PUSH1 0x4 DUP3 ADD PUSH1 0x20 MSTORE PUSH1 0x40 DUP2 KECCAK256 DUP1 SLOAD PUSH1 0xFF NOT AND PUSH1 0x1 OR SWAP1 SSTORE PUSH1 0x2 DUP3 ADD DUP1 SLOAD SWAP2 PUSH2 0x62D DUP4 PUSH2 0xECE JUMP JUMPDEST SWAP1 SWAP2 SSTORE POP POP PUSH1 0x40 MLOAD DUP3 DUP2 MSTORE CALLER SWAP1 PUSH32 0x6ADEB3D71EFFB4AA3E5694A1E198537FDEE35ACEC121631B4F4500642F952896 SWAP1 PUSH1 0x20 ADD PUSH1 0x40 MLOAD DUP1 SWAP2 SUB SWAP1 LOG2 POP POP JUMP JUMPDEST PUSH1 0x0 SLOAD PUSH1 0x1 PUSH1 0x1 PUSH1 0xA0 SHL SUB AND CALLER EQ PUSH2 0x6C5 JUMPI PUSH1 0x40 MLOAD PUSH3 0x461BCD PUSH1 0xE5 SHL DUP2 MSTORE PUSH1 0x20 PUSH1 0x4 DUP3 ADD MSTORE PUSH1 0x1A PUSH1 0x24 DUP3 ADD MSTORE PUSH32 0x4F6E6C792063726561746F722063616E2063616C6C2074686973000000000000 PUSH1 0x44 DUP3 ADD MSTORE PUSH1 0x64 ADD PUSH2 0x526 JUMP JUMPDEST SELFBALANCE DUP2 GT ISZERO PUSH2 0x70E JUMPI PUSH1 0x40 MLOAD PUSH3 0x461BCD PUSH1 0xE5 SHL DUP2 MSTORE PUSH1 0x20 PUSH1 0x4 DUP3 ADD MSTORE PUSH1 0x16 PUSH1 0x24 DUP3 ADD MSTORE PUSH22 0x416D6F756E7420657863656564732062616C616E6365 PUSH1 0x50 SHL PUSH1 0x44 DUP3 ADD MSTORE PUSH1 0x64 ADD PUSH2 0x526 JUMP JUMPDEST PUSH1 0x8 DUP1 SLOAD PUSH1 0x1 DUP2 ADD DUP3 SSTORE PUSH1 0x0 SWAP2 SWAP1 SWAP2 MSTORE PUSH1 0x5 MUL PUSH32 0xF3F7A9FE364FAAB93B216DA50A3214154F22A0A2B415B23A84C8169E8B636EE3 ADD DUP1 PUSH2 0x74E DUP5 DUP3 PUSH2 0xF36 JUMP JUMPDEST POP PUSH1 0x1 DUP2 ADD DUP3 SWAP1 SSTORE PUSH1 0x0 PUSH1 0x2 DUP3 ADD SSTORE PUSH1 0x3 DUP2 ADD DUP1 SLOAD PUSH2 0xFFFF NOT AND SWAP1 SSTORE PUSH1 0x40 MLOAD PUSH32 0xCC684C5A5B3EB7573B102E134B9C71823A07D7F3503F183E219C7413CE19790 SWAP1 PUSH2 0x79C SWAP1 DUP6 SWAP1 DUP6 SWAP1 PUSH2 0xFF6 JUMP JUMPDEST PUSH1 0x40 MLOAD DUP1 SWAP2 SUB SWAP1 LOG1 POP POP POP JUMP JUMPDEST PUSH1 0x8 DUP2 DUP2 SLOAD DUP2 LT PUSH2 0x7B9 JUMPI PUSH1 0x0 DUP1 REVERT JUMPDEST SWAP1 PUSH1 0x0 MSTORE PUSH1 0x20 PUSH1 0x0 KECCAK256 SWAP1 PUSH1 0x5 MUL ADD PUSH1 0x0 SWAP2 POP SWAP1 POP DUP1 PUSH1 0x0 ADD DUP1 SLOAD PUSH2 0x7DC SWAP1 PUSH2 0xE68 JUMP JUMPDEST DUP1 PUSH1 0x1F ADD PUSH1 0x20 DUP1 SWAP2 DIV MUL PUSH1 0x20 ADD PUSH1 0x40 MLOAD SWAP1 DUP2 ADD PUSH1 0x40 MSTORE DUP1 SWAP3 SWAP2 SWAP1 DUP2 DUP2 MSTORE PUSH1 0x20 ADD DUP3 DUP1 SLOAD PUSH2 0x808 SWAP1 PUSH2 0xE68 JUMP JUMPDEST DUP1 ISZERO PUSH2 0x855 JUMPI DUP1 PUSH1 0x1F LT PUSH2 0x82A JUMPI PUSH2 0x100 DUP1 DUP4 SLOAD DIV MUL DUP4 MSTORE SWAP2 PUSH1 0x20 ADD SWAP2 PUSH2 0x855 JUMP JUMPDEST DUP3 ADD SWAP2 SWAP1 PUSH1 0x0 MSTORE PUSH1 0x20 PUSH1 0x0 KECCAK256 SWAP1 JUMPDEST DUP2 SLOAD DUP2 MSTORE SWAP1 PUSH1 0x1 ADD SWAP1 PUSH1 0x20 ADD DUP1 DUP4 GT PUSH2 0x838 JUMPI DUP3 SWAP1 SUB PUSH1 0x1F AND DUP3 ADD SWAP2 JUMPDEST POP POP POP POP PUSH1 0x1 DUP4 ADD SLOAD PUSH1 0x2 DUP5 ADD SLOAD PUSH1 0x3 SWAP1 SWAP5 ADD SLOAD SWAP3 SWAP4 SWAP1 SWAP3 SWAP1 SWAP2 POP PUSH1 0xFF DUP1 DUP3 AND SWAP2 PUSH2 0x100 SWAP1 DIV AND DUP6 JUMP JUMPDEST PUSH1 0x0 SLOAD PUSH1 0x1 PUSH1 0x1 PUSH1 0xA0 SHL SUB AND CALLER EQ PUSH2 0x8D9 JUMPI PUSH1 0x40 MLOAD PUSH3 0x461BCD PUSH1 0xE5 SHL DUP2 MSTORE PUSH1 0x20 PUSH1 0x4 DUP3 ADD MSTORE PUSH1 0x1A PUSH1 0x24 DUP3 ADD MSTORE PUSH32 0x4F6E6C792063726561746F722063616E2063616C6C2074686973000000000000 PUSH1 0x44 DUP3 ADD MSTORE PUSH1 0x64 ADD PUSH2 0x526 JUMP JUMPDEST PUSH2 0x8E1 PUSH2 0xC11 JUMP JUMPDEST PUSH1 0x0 PUSH1 0x8 DUP3 DUP2 SLOAD DUP2 LT PUSH2 0x8F6 JUMPI PUSH2 0x8F6 PUSH2 0xEA2 JUMP JUMPDEST SWAP1 PUSH1 0x0 MSTORE PUSH1 0x20 PUSH1 0x0 KECCAK256 SWAP1 PUSH1 0x5 MUL ADD SWAP1 POP DUP1 PUSH1 0x3 ADD PUSH1 0x1 SWAP1 SLOAD SWAP1 PUSH2 0x100 EXP SWAP1 DIV PUSH1 0xFF AND ISZERO PUSH2 0x959 JUMPI PUSH1 0x40 MLOAD PUSH3 0x461BCD PUSH1 0xE5 SHL DUP2 MSTORE PUSH1 0x20 PUSH1 0x4 DUP3 ADD MSTORE PUSH1 0x11 PUSH1 0x24 DUP3 ADD MSTORE PUSH17 0x20B63932B0B23C903BB4BA34323930BBB7 PUSH1 0x79 SHL PUSH1 0x44 DUP3 ADD MSTORE PUSH1 0x64 ADD PUSH2 0x526 JUMP JUMPDEST PUSH1 0x2 PUSH1 0x6 SLOAD PUSH2 0x968 SWAP2 SWAP1 PUSH2 0x1018 JUMP JUMPDEST DUP2 PUSH1 0x2 ADD SLOAD GT PUSH2 0x9B1 JUMPI PUSH1 0x40 MLOAD PUSH3 0x461BCD PUSH1 0xE5 SHL DUP2 MSTORE PUSH1 0x20 PUSH1 0x4 DUP3 ADD MSTORE PUSH1 0x14 PUSH1 0x24 DUP3 ADD MSTORE PUSH20 0x4E6F7420656E6F75676820617070726F76616C73 PUSH1 0x60 SHL PUSH1 0x44 DUP3 ADD MSTORE PUSH1 0x64 ADD PUSH2 0x526 JUMP JUMPDEST DUP1 PUSH1 0x1 ADD SLOAD SELFBALANCE LT ISZERO PUSH2 0x9FC JUMPI PUSH1 0x40 MLOAD PUSH3 0x461BCD PUSH1 0xE5 SHL DUP2 MSTORE PUSH1 0x20 PUSH1 0x4 DUP3 ADD MSTORE PUSH1 0x14 PUSH1 0x24 DUP3 ADD MSTORE PUSH20 0x496E73756666696369656E742062616C616E6365 PUSH1 0x60 SHL PUSH1 0x44 DUP3 ADD MSTORE PUSH1 0x64 ADD PUSH2 0x526 JUMP JUMPDEST PUSH1 0x3 DUP2 ADD DUP1 SLOAD PUSH2 0xFFFF NOT AND PUSH2 0x101 OR SWAP1 SSTORE PUSH1 0x0 DUP1 SLOAD PUSH1 0x1 DUP4 ADD SLOAD PUSH1 0x40 MLOAD PUSH1 0x1 PUSH1 0x1 PUSH1 0xA0 SHL SUB SWAP1 SWAP3 AND SWAP3 PUSH2 0x8FC DUP3 ISZERO MUL SWAP3 SWAP1 DUP2 DUP2 DUP2 DUP6 DUP9 DUP9 CALL SWAP4 POP POP POP POP ISZERO DUP1 ISZERO PUSH2 0xA4A JUMPI RETURNDATASIZE PUSH1 0x0 DUP1 RETURNDATACOPY RETURNDATASIZE PUSH1 0x0 REVERT JUMPDEST POP PUSH1 0x1 DUP2 ADD SLOAD PUSH1 0x40 DUP1 MLOAD DUP5 DUP2 MSTORE PUSH1 0x20 DUP2 ADD SWAP3 SWAP1 SWAP3 MSTORE PUSH32 0x10301F604CB6F07966F42A5A4FB1B4DFF7D115C5A6BD11BE3784743607B372C9 SWAP2 ADD PUSH1 0x40 MLOAD DUP1 SWAP2 SUB SWAP1 LOG1 POP PUSH2 0xAA2 PUSH1 0x1 PUSH1 0x0 DUP1 MLOAD PUSH1 0x20 PUSH2 0x1054 DUP4 CODECOPY DUP2 MLOAD SWAP2 MSTORE SSTORE JUMP JUMPDEST POP JUMP JUMPDEST PUSH2 0xAAD PUSH2 0xC11 JUMP JUMPDEST PUSH1 0x4 SLOAD TIMESTAMP LT PUSH2 0xAFE JUMPI PUSH1 0x40 MLOAD PUSH3 0x461BCD PUSH1 0xE5 SHL DUP2 MSTORE PUSH1 0x20 PUSH1 0x4 DUP3 ADD MSTORE PUSH1 0x18 PUSH1 0x24 DUP3 ADD MSTORE PUSH32 0x43616D706169676E20646561646C696E65207061737365640000000000000000 PUSH1 0x44 DUP3 ADD MSTORE PUSH1 0x64 ADD PUSH2 0x526 JUMP JUMPDEST PUSH1 0x0 CALLVALUE GT PUSH2 0xB5A JUMPI PUSH1 0x40 MLOAD PUSH3 0x461BCD PUSH1 0xE5 SHL DUP2 MSTORE PUSH1 0x20 PUSH1 0x4 DUP3 ADD MSTORE PUSH1 0x23 PUSH1 0x24 DUP3 ADD MSTORE PUSH32 0x436F6E747269627574696F6E206D757374206265206772656174657220746861 PUSH1 0x44 DUP3 ADD MSTORE PUSH3 0x6E203 PUSH1 0xEC SHL PUSH1 0x64 DUP3 ADD MSTORE PUSH1 0x84 ADD PUSH2 0x526 JUMP JUMPDEST CALLER PUSH1 0x0 SWAP1 DUP2 MSTORE PUSH1 0x7 PUSH1 0x20 MSTORE PUSH1 0x40 DUP2 KECCAK256 SLOAD SWAP1 SUB PUSH2 0xB86 JUMPI PUSH1 0x6 DUP1 SLOAD SWAP1 PUSH1 0x0 PUSH2 0xB80 DUP4 PUSH2 0xECE JUMP JUMPDEST SWAP2 SWAP1 POP SSTORE POP JUMPDEST CALLER PUSH1 0x0 SWAP1 DUP2 MSTORE PUSH1 0x7 PUSH1 0x20 MSTORE PUSH1 0x40 DUP2 KECCAK256 DUP1 SLOAD CALLVALUE SWAP3 SWAP1 PUSH2 0xBA5 SWAP1 DUP5 SWAP1 PUSH2 0x103A JUMP JUMPDEST SWAP3 POP POP DUP2 SWAP1 SSTORE POP CALLVALUE PUSH1 0x5 PUSH1 0x0 DUP3 DUP3 SLOAD PUSH2 0xBBE SWAP2 SWAP1 PUSH2 0x103A JUMP JUMPDEST SWAP1 SWAP2 SSTORE POP POP PUSH1 0x40 MLOAD CALLVALUE DUP2 MSTORE CALLER SWAP1 PUSH32 0x2A01595CDDF097C90216094025DB714DA3F4E5BD8877B56BA86A24ECEAD8E543 SWAP1 PUSH1 0x20 ADD PUSH1 0x40 MLOAD DUP1 SWAP2 SUB SWAP1 LOG2 PUSH2 0xC0F PUSH1 0x1 PUSH1 0x0 DUP1 MLOAD PUSH1 0x20 PUSH2 0x1054 DUP4 CODECOPY DUP2 MLOAD SWAP2 MSTORE SSTORE JUMP JUMPDEST JUMP JUMPDEST PUSH2 0xC19 PUSH2 0xC2D JUMP JUMPDEST PUSH1 0x2 PUSH1 0x0 DUP1 MLOAD PUSH1 0x20 PUSH2 0x1054 DUP4 CODECOPY DUP2 MLOAD SWAP2 MSTORE SSTORE JUMP JUMPDEST PUSH1 0x0 DUP1 MLOAD PUSH1 0x20 PUSH2 0x1054 DUP4 CODECOPY DUP2 MLOAD SWAP2 MSTORE SLOAD PUSH1 0x2 SUB PUSH2 0xC0F JUMPI PUSH1 0x40 MLOAD PUSH4 0x3EE5AEB5 PUSH1 0xE0 SHL DUP2 MSTORE PUSH1 0x4 ADD PUSH1 0x40 MLOAD DUP1 SWAP2 SUB SWAP1 REVERT JUMPDEST PUSH1 0x0 DUP2 MLOAD DUP1 DUP5 MSTORE PUSH1 0x0 JUMPDEST DUP2 DUP2 LT ISZERO PUSH2 0xC83 JUMPI PUSH1 0x20 DUP2 DUP6 ADD DUP2 ADD MLOAD DUP7 DUP4 ADD DUP3 ADD MSTORE ADD PUSH2 0xC67 JUMP JUMPDEST POP PUSH1 0x0 PUSH1 0x20 DUP3 DUP7 ADD ADD MSTORE PUSH1 0x20 PUSH1 0x1F NOT PUSH1 0x1F DUP4 ADD AND DUP6 ADD ADD SWAP2 POP POP SWAP3 SWAP2 POP POP JUMP JUMPDEST PUSH1 0x1 PUSH1 0x1 PUSH1 0xA0 SHL SUB DUP10 AND DUP2 MSTORE PUSH2 0x100 PUSH1 0x20 DUP3 ADD DUP2 SWAP1 MSTORE PUSH1 0x0 SWAP1 PUSH2 0xCC8 DUP4 DUP3 ADD DUP12 PUSH2 0xC5D JUMP JUMPDEST SWAP1 POP DUP3 DUP2 SUB PUSH1 0x40 DUP5 ADD MSTORE PUSH2 0xCDC DUP2 DUP11 PUSH2 0xC5D JUMP JUMPDEST PUSH1 0x60 DUP5 ADD SWAP9 SWAP1 SWAP9 MSTORE POP POP PUSH1 0x80 DUP2 ADD SWAP5 SWAP1 SWAP5 MSTORE PUSH1 0xA0 DUP5 ADD SWAP3 SWAP1 SWAP3 MSTORE PUSH1 0xC0 DUP4 ADD MSTORE PUSH1 0xE0 SWAP1 SWAP2 ADD MSTORE SWAP4 SWAP3 POP POP POP JUMP JUMPDEST PUSH1 0x0 PUSH1 0x20 DUP3 DUP5 SUB SLT ISZERO PUSH2 0xD1A JUMPI PUSH1 0x0 DUP1 REVERT JUMPDEST DUP2 CALLDATALOAD PUSH1 0x1 PUSH1 0x1 PUSH1 0xA0 SHL SUB DUP2 AND DUP2 EQ PUSH2 0xD31 JUMPI PUSH1 0x0 DUP1 REVERT JUMPDEST SWAP4 SWAP3 POP POP POP JUMP JUMPDEST PUSH1 0x20 DUP2 MSTORE PUSH1 0x0 PUSH2 0xD31 PUSH1 0x20 DUP4 ADD DUP5 PUSH2 0xC5D JUMP JUMPDEST PUSH1 0x0 PUSH1 0x20 DUP3 DUP5 SUB SLT ISZERO PUSH2 0xD5D JUMPI PUSH1 0x0 DUP1 REVERT JUMPDEST POP CALLDATALOAD SWAP2 SWAP1 POP JUMP JUMPDEST PUSH4 0x4E487B71 PUSH1 0xE0 SHL PUSH1 0x0 MSTORE PUSH1 0x41 PUSH1 0x4 MSTORE PUSH1 0x24 PUSH1 0x0 REVERT JUMPDEST PUSH1 0x0 DUP1 PUSH1 0x40 DUP4 DUP6 SUB SLT ISZERO PUSH2 0xD8D JUMPI PUSH1 0x0 DUP1 REVERT JUMPDEST DUP3 CALLDATALOAD PUSH8 0xFFFFFFFFFFFFFFFF DUP1 DUP3 GT ISZERO PUSH2 0xDA5 JUMPI PUSH1 0x0 DUP1 REVERT JUMPDEST DUP2 DUP6 ADD SWAP2 POP DUP6 PUSH1 0x1F DUP4 ADD SLT PUSH2 0xDB9 JUMPI PUSH1 0x0 DUP1 REVERT JUMPDEST DUP2 CALLDATALOAD DUP2 DUP2 GT ISZERO PUSH2 0xDCB JUMPI PUSH2 0xDCB PUSH2 0xD64 JUMP JUMPDEST PUSH1 0x40 MLOAD PUSH1 0x1F DUP3 ADD PUSH1 0x1F NOT SWAP1 DUP2 AND PUSH1 0x3F ADD AND DUP2 ADD SWAP1 DUP4 DUP3 GT DUP2 DUP4 LT OR ISZERO PUSH2 0xDF3 JUMPI PUSH2 0xDF3 PUSH2 0xD64 JUMP JUMPDEST DUP2 PUSH1 0x40 MSTORE DUP3 DUP2 MSTORE DUP9 PUSH1 0x20 DUP5 DUP8 ADD ADD GT ISZERO PUSH2 0xE0C JUMPI PUSH1 0x0 DUP1 REVERT JUMPDEST DUP3 PUSH1 0x20 DUP7 ADD PUSH1 0x20 DUP4 ADD CALLDATACOPY PUSH1 0x0 PUSH1 0x20 SWAP4 DUP3 ADD DUP5 ADD MSTORE SWAP9 SWAP7 SWAP1 SWAP2 ADD CALLDATALOAD SWAP7 POP POP POP POP POP POP JUMP JUMPDEST PUSH1 0xA0 DUP2 MSTORE PUSH1 0x0 PUSH2 0xE42 PUSH1 0xA0 DUP4 ADD DUP9 PUSH2 0xC5D JUMP JUMPDEST PUSH1 0x20 DUP4 ADD SWAP7 SWAP1 SWAP7 MSTORE POP PUSH1 0x40 DUP2 ADD SWAP4 SWAP1 SWAP4 MSTORE SWAP1 ISZERO ISZERO PUSH1 0x60 DUP4 ADD MSTORE ISZERO ISZERO PUSH1 0x80 SWAP1 SWAP2 ADD MSTORE SWAP2 SWAP1 POP JUMP JUMPDEST PUSH1 0x1 DUP2 DUP2 SHR SWAP1 DUP3 AND DUP1 PUSH2 0xE7C JUMPI PUSH1 0x7F DUP3 AND SWAP2 POP JUMPDEST PUSH1 0x20 DUP3 LT DUP2 SUB PUSH2 0xE9C JUMPI PUSH4 0x4E487B71 PUSH1 0xE0 SHL PUSH1 0x0 MSTORE PUSH1 0x22 PUSH1 0x4 MSTORE PUSH1 0x24 PUSH1 0x0 REVERT JUMPDEST POP SWAP2 SWAP1 POP JUMP JUMPDEST PUSH4 0x4E487B71 PUSH1 0xE0 SHL PUSH1 0x0 MSTORE PUSH1 0x32 PUSH1 0x4 MSTORE PUSH1 0x24 PUSH1 0x0 REVERT JUMPDEST PUSH4 0x4E487B71 PUSH1 0xE0 SHL PUSH1 0x0 MSTORE PUSH1 0x11 PUSH1 0x4 MSTORE PUSH1 0x24 PUSH1 0x0 REVERT JUMPDEST PUSH1 0x0 PUSH1 0x1 DUP3 ADD PUSH2 0xEE0 JUMPI PUSH2 0xEE0 PUSH2 0xEB8 JUMP JUMPDEST POP PUSH1 0x1 ADD SWAP1 JUMP JUMPDEST PUSH1 0x1F DUP3 GT ISZERO PUSH2 0xF31 JUMPI PUSH1 0x0 DUP2 DUP2 MSTORE PUSH1 0x20 DUP2 KECCAK256 PUSH1 0x1F DUP6 ADD PUSH1 0x5 SHR DUP2 ADD PUSH1 0x20 DUP7 LT ISZERO PUSH2 0xF0E JUMPI POP DUP1 JUMPDEST PUSH1 0x1F DUP6 ADD PUSH1 0x5 SHR DUP3 ADD SWAP2 POP JUMPDEST DUP2 DUP2 LT ISZERO PUSH2 0xF2D JUMPI DUP3 DUP2 SSTORE PUSH1 0x1 ADD PUSH2 0xF1A JUMP JUMPDEST POP POP POP JUMPDEST POP POP POP JUMP JUMPDEST DUP2 MLOAD PUSH8 0xFFFFFFFFFFFFFFFF DUP2 GT ISZERO PUSH2 0xF50 JUMPI PUSH2 0xF50 PUSH2 0xD64 JUMP JUMPDEST PUSH2 0xF64 DUP2 PUSH2 0xF5E DUP5 SLOAD PUSH2 0xE68 JUMP JUMPDEST DUP5 PUSH2 0xEE7 JUMP JUMPDEST PUSH1 0x20 DUP1 PUSH1 0x1F DUP4 GT PUSH1 0x1 DUP2 EQ PUSH2 0xF99 JUMPI PUSH1 0x0 DUP5 ISZERO PUSH2 0xF81 JUMPI POP DUP6 DUP4 ADD MLOAD JUMPDEST PUSH1 0x0 NOT PUSH1 0x3 DUP7 SWAP1 SHL SHR NOT AND PUSH1 0x1 DUP6 SWAP1 SHL OR DUP6 SSTORE PUSH2 0xF2D JUMP JUMPDEST PUSH1 0x0 DUP6 DUP2 MSTORE PUSH1 0x20 DUP2 KECCAK256 PUSH1 0x1F NOT DUP7 AND SWAP2 JUMPDEST DUP3 DUP2 LT ISZERO PUSH2 0xFC8 JUMPI DUP9 DUP7 ADD MLOAD DUP3 SSTORE SWAP5 DUP5 ADD SWAP5 PUSH1 0x1 SWAP1 SWAP2 ADD SWAP1 DUP5 ADD PUSH2 0xFA9 JUMP JUMPDEST POP DUP6 DUP3 LT ISZERO PUSH2 0xFE6 JUMPI DUP8 DUP6 ADD MLOAD PUSH1 0x0 NOT PUSH1 0x3 DUP9 SWAP1 SHL PUSH1 0xF8 AND SHR NOT AND DUP2 SSTORE JUMPDEST POP POP POP POP POP PUSH1 0x1 SWAP1 DUP2 SHL ADD SWAP1 SSTORE POP JUMP JUMPDEST PUSH1 0x40 DUP2 MSTORE PUSH1 0x0 PUSH2 0x1009 PUSH1 0x40 DUP4 ADD DUP6 PUSH2 0xC5D JUMP JUMPDEST SWAP1 POP DUP3 PUSH1 0x20 DUP4 ADD MSTORE SWAP4 SWAP3 POP POP POP JUMP JUMPDEST PUSH1 0x0 DUP3 PUSH2 0x1035 JUMPI PUSH4 0x4E487B71 PUSH1 0xE0 SHL PUSH1 0x0 MSTORE PUSH1 0x12 PUSH1 0x4 MSTORE PUSH1 0x24 PUSH1 0x0 REVERT JUMPDEST POP DIV SWAP1 JUMP JUMPDEST DUP1 DUP3 ADD DUP1 DUP3 GT ISZERO PUSH2 0x104D JUMPI PUSH2 0x104D PUSH2 0xEB8 JUMP JUMPDEST SWAP3 SWAP2 POP POP JUMP INVALID SWAP12 PUSH24 0x9B17422D0DF92223018B32B4D1FA46E071723D6817E2486D STOP EXTCODESIZE 0xEC 0xC5 PUSH0 STOP LOG2 PUSH5 0x6970667358 0x22 SLT KECCAK256 0x49 PUSH10 0x1015567FE62D0EC93A1E ADDMOD SWAP2 MSIZE MOD SMOD SMOD 0xB4 CALLCODE 0x26 DIV POP 0xD0 0xAC 0xC7 0xC3 0xA7 SWAP16 0x26 0x2E OR PUSH5 0x736F6C6343 STOP ADDMOD EQ STOP CALLER LOG2 PUSH5 0x6970667358 0x22 SLT KECCAK256 PUSH30 0x87EBEA3451B7522394ACE8EDDADCA5FF4DE8D2EB9EC4ED972C8EAB667C92 PUSH27 0x64736F6C6343000814003300000000000000000000000000000000 "},"methodIdentifiers":{"createCampaign(string,string,uint256,uint256)":"a318f269","deployedCampaigns(uint256)":"339d50a5","getDeployedCampaigns()":"4acb9d4f"}}}}}